:020000040800F2
:10000000C8CA0120491900080D1D0008191D000863
:10001000211D0008291D0008311D000800000000F6
:10002000000000000000000000000000391D000872
:10003000451D000800000000511D00085D1D00085E
:10004000B9190008B9190008B9190008B919000848
:10005000B9190008B9190008B9190008B919000838
:10006000B9190008B9190008B9190008B919000828
:10007000B9190008B9190008B9190008B919000818
:10008000B9190008B9190008B9190008B919000808
:10009000B9190008B9190008B9190008B9190008F8
:1000A000B9190008B9190008B9190008B9190008E8
:1000B000B9190008B9190008B9190008B9190008D8
:1000C000B9190008B9190008B9190008B9190008C8
:1000D000B9190008B9410008B9190008B919000890
:1000E000991D0008B9190008B9190008B9190008C4
:1000F000B9190008B9190008B9190008B919000898
:10010000B9190008B9190008B9190008B919000887
:10011000B9190008B9190008B9190008B919000877
:10012000B9190008B9190008B9190008B919000867
:10013000B9190008B9190008B9190008B919000857
:10014000B9190008B9190008B9190008B919000847
:10015000B9190008B9190008B9190008B919000837
:10016000B9190008B9190008B9190008B919000827
:10017000B9190008B9190008B9190008B919000817
:10018000B9190008B919000890B484B000AF02464C
:100190000B46FA71BB710023FB60BB7903F00303CC
:1001A0009B000F2202FA03F3FB60154BBA79920809
:1001B000D2B21349B8798008C0B2023051F8200099
:1001C000F968C9430140023243F822100C4BBA7956
:1001D0009208D2B20A49B8798008C0B2023051F808
:1001E0002000FC79B97901F00301890004FA01F1DA
:1001F0000143023243F822101037BD4690BC7047CD
:100200000038014080B500AF514B1A6845F24F539A
:100210009A4207DC4F4B1B78002B4FD14D4B5B783C
:10022000002B4BD1322001F067F800F0C9FE4A4B99
:100230001B881A46494B1B881344B3F5FA7F04DA2E
:100240004748202102F072FC03E04548202102F0DB
:100250007BFC444B1B88772B05D843484FF48061C7
:1002600002F064FC04E040484FF4806102F06CFC52
:100270003E4B1B88772B05D83B484FF4805102F04A
:1002800055FC04E038484FF4805102F05DFC00F06A
:100290009BFD304B1B78002B08D12E4B5B78002B3D
:1002A00004D12B4B41F630321A6002E0284B002279
:1002B0001A6000F063F82E4B01221A702C4B1B7849
:1002C000002B44D02648402102F03EFC294B1B78ED
:1002D000294AD35C012B02D103F01AFB22E0254B03
:1002E0001B78254AD35C022B02D103F027FB19E0CF
:1002F000204B1B78204AD35C032B02D103F036FB42
:1003000010E01C4B1B781C4AD35C042B02D103F079
:1003100043FB07E0174B1B78174AD35C052B01D131
:1003200003F050FB134B1B78134A0021D154114B9F
:100330001B780133DAB20F4B1A700E4B1B78022B6D
:1003400002D90C4B00221A70094B00221A7080BD92
:1003500050090020AC0A0020AA090020A8090020AA
:1003600000000240AE09002000040240AC09002059
:10037000400A0020480900204C09002080B500AF49
:10038000974B1968974B1A78964B5B78084611463D
:100390001A4602F0EBFD0246914B1A60914B1B7816
:1003A0001946904B5B78904AC9000B4413441B7864
:1003B000002B11D18C4B00221A70894B1B681846F8
:1003C0000021002202F0D2FD0246854B1A60864BC6
:1003D000C82283F83F20ADE3ACE3814B1B681A7859
:1003E000824B1A707E4B1B685A78814B1A707C4B7B
:1003F0001B68184602F0A0FD0246794B1A607D4B3F
:1004000000221A70794B1B781946794B1B787A4A6F
:10041000C9000B4413441B7803F00203002B23D1C3
:10042000724B1A78754B1A70714B1B780133DAB224
:10043000734B1A706D4B1B7819466D4B1B786A4ACB
:10044000C9000B4413441B785A1E6C4B1B7818468A
:100450006B4B1B786449C00003440B441B789A42E1
:1004600002D1644B01221A70624B1B78002B31D1F0
:100470005E4B1B7819465E4B1B785F4AC9000B44E4
:1004800013441B78DBB25BB2002B23DB574B1B788A
:100490000133DAB2594B1A70554B1A78584B1A700F
:1004A000524B1B781946524B1B784F4AC9000B44DC
:1004B00013441B785A1E514B1B781846504B1B781F
:1004C0004949C00003440B441B789A4202D1494B6E
:1004D00001221A70474B1B78002B31D1434B1B78FC
:1004E0001946434B1B78444AC9000B4413441B78FC
:1004F00003F00803002B23D13C4B1B78013BDAB2FD
:100500003E4B1A703A4B1A783D4B1A70374B1B789A
:100510001946374B1B78344AC9000B4413441B78E7
:100520005A1E364B1B781846354B1B782E49C00097
:1005300003440B441B789A4202D12E4B01221A70BD
:100540002C4B1B78002B31D1284B1B781946284B9C
:100550001B78294AC9000B4413441B7803F020037D
:10056000002B23D1214B1A78244B1A70204B1B7877
:10057000013BDAB2224B1A701C4B1B7819461C4BFC
:100580001B78194AC9000B4413441B785A1E1B4B95
:100590001B7818461A4B1B781349C00003440B44C0
:1005A0001B789A4202D1134B01221A70114B1B780F
:1005B000002B00F06281134B1B881BB2002B00F351
:1005C000B982084B9B78102B24D10F4B00221A7054
:1005D0000E4B01221A700E4B02221A7043E000BF2C
:1005E000B00A0020AC0A002000000020B60A00205B
:1005F000450900204409002040000020A00A0020F6
:1006000046090020CC090020B50A0020B40A0020C9
:10061000800000209B4B9B78042B09D19A4B012230
:100620001A709A4B00221A70994B80221A701AE0A5
:10063000944B9B78402B09D1934BFF221A70934B1C
:1006400000221A70924B08221A700CE08D4B9B7896
:10065000012B08D18C4B00221A708C4BFF221A7090
:100660008B4B20221A70874B1B781A46864B1B78BF
:10067000D118844B5B781A46844B1B781344854A07
:10068000C9000B4413441B781A467E4B1B7818464E
:100690007C4B5B787F49C00003440B441B78013BD3
:1006A0009A4222D1774B1B781946764B5B787A4A6F
:1006B000C9000B4413441A78754B1B781340DAB207
:1006C000734B1B789A4210D06E4B1A786E4B1B7886
:1006D0001344DAB2714B1A706A4B5A786B4B1B7821
:1006E0001344DAB26E4B1A70C4E0664B1B7819469D
:1006F000644B5B780133674AC9000B4413441B7891
:100700001A46604B1B7818465E4B5B786149C00007
:1007100003440B441B78013B9A4218D1594B1B7878
:100720001946584B5B785C4AC9000B4413441B784C
:1007300003F00203002B0AD1524B1A78574B1A7060
:10074000504B5B780133DAB2554B1A7092E04D4B47
:100750001B78591C4B4B5B784E4AC9000B44134421
:100760001B781A46474B1B781846464B5B7849491D
:10077000C00003440B441B78013B9A4218D1414B03
:100780001B7819463F4B5B78434AC9000B4413441E
:100790001B78DBB25BB2002B0ADB3A4B1B780133D0
:1007A000DAB23E4B1A70374B5A783D4B1A7061E003
:1007B000344B1B78591E334B5B78364AC9000B44C7
:1007C00013441B781A462F4B1B7818462D4B5B7829
:1007D0003049C00003440B441B78013B9A4218D1B6
:1007E000284B1B781946274B5B782B4AC9000B44D2
:1007F00013441B7803F00803002B0AD1214B1B780C
:10080000013BDAB2254B1A701E4B5A78244B1A70F2
:1008100030E01C4B1B7819461A4B5B78013B1D4A94
:10082000C9000B4413441B781A46164B1B78184614
:10083000144B5B781749C00003440B441B78013B01
:100840009A4217D10F4B1B7819460E4B5B78124A10
:10085000C9000B4413441B7803F02003002B09D17B
:10086000084B1A780D4B1A70064B5B78013BDAB2D5
:100870000B4B1A7000F074F95CE10A4B00221A70FD
:100880001DE000BFAC0A0020B50A0020B40A002019
:10089000800000200000002040000020B70A002057
:1008A00047090020AF0A0020514B1B78514AFA211A
:1008B000D1544F4B1B780133DAB24D4B1A704C4B6D
:1008C0001B78042BF0D94C4B1B7819464B4B1B78EB
:1008D0004B4AC9000B4413441B78DBB25BB2002BBC
:1008E00015DB454B1B780133DAB2464B1A70434B8C
:1008F0001A78454B1A70434B1B781946424B1B78AC
:10090000424AC9000B4413441A783A4B5A703A4B86
:100910001B781946394B1B78394AC9000B441344DC
:100920001B7803F00803002B15D1334B1B78013BD8
:10093000DAB2344B1A70314B1A78334B1A70314B90
:100940001B781946304B1B78304AC9000B441344BE
:100950001A78284B9A70284B1B781946274B1B781E
:10096000274AC9000B4413441B7803F02003002BD3
:1009700015D1214B1A78234B1A70204B1B78013B61
:10098000DAB2214B1A701F4B1B7819461E4B1B788D
:100990001E4AC9000B4413441A78164BDA70164BE2
:1009A0001B781946154B1B78154AC9000B44134494
:1009B0001B7803F00203002B15D10F4B1A78114B53
:1009C0001A700E4B1B780133DAB20F4B1A700D4BB5
:1009D0001B7819460C4B1B780C4AC9000B44134476
:1009E0001A78044B1A71024B01221A7024E000BFDE
:1009F000AF0A002084000020B60A0020450900202C
:100A000040000020A00A002046090020000000202D
:100A10004C4B1B784C4AD25C4B4B1B789A4205D20C
:100A2000484B1B78484AD25C474B1A70454B1B78A1
:100A30000133DAB2434B1A70424B1B78042BE7D9CF
:100A4000424B1B781946424B1B78424AC9000B4463
:100A500013441B78002B6DD03C4B1B7818463C4B45
:100A60001B78394A12780132D2B23A49C0000344A5
:100A70000B441A70354B1B781946354B1B78354A99
:100A8000C9000B4413441B78D12B53D8304B1B782F
:100A90000133072B0FDC304B19682C4B1A782C4B89
:100AA0001B780133DBB2084611461A4602F05EFAA3
:100AB0000246294B1A60264B1B78013B002B0FDBAB
:100AC000254B1968214B1A78214B1B78013BDBB26F
:100AD000084611461A4602F049FA02461E4B1A60B1
:100AE0001A4B1B78013B002B0FDB1B4B1968174B74
:100AF0001B78013BDAB2164B1B78084611461A46A2
:100B000002F034FA0246144B1A60104B1B78013382
:100B1000072B0FDC104B19680C4B1B780133DAB232
:100B20000B4B1B78084611461A4602F01FFA024684
:100B3000094B1A60094B1B881BB2002B3FF74DACC9
:100B400080BD00BFAF0A002084000020B60A00204C
:100B50004509002000000020B00A0020CC09002038
:100B600080B582B000AF1023FB71504B1A78504B08
:100B70001B789A421DD24D4B9B78102B02D100F06E
:100B8000CDF913E0494B9B78042B02D100F008FA11
:100B90000CE0464B9B78402B02D100F0EBF905E0CE
:100BA000424B9B78012B01D100F0CEF90423FB715D
:100BB0006AE03E4B1A783E4B1B789A421DD93B4B5C
:100BC0009B78102B02D100F0BFF913E0374B9B78D4
:100BD000042B02D100F0CEF90CE0344B9B78402B73
:100BE00002D100F0DDF905E0304B9B78012B01D1FB
:100BF00000F094F94023FB7146E02C4B5A782D4BC2
:100C00001B789A421DD2294B9B78102B02D100F001
:100C1000C7F913E0254B9B78042B02D100F094F91F
:100C20000CE0224B9B78402B02D100F077F905E0D5
:100C30001E4B9B78012B01D100F09CF91023FB7116
:100C400022E01A4B5A781B4B1B789A421CD9174B3F
:100C50009B78102B02D100F08DF913E0134B9B7899
:100C6000042B02D100F05AF90CE0104B9B78402B7A
:100C700002D100F069F905E00C4B9B78012B01D102
:100C800000F08EF90123FB71094B1A78074B1A709B
:100C9000084B1A78054B5A70044BFA799A70064B38
:100CA00000221A700837BD4680BD00BFAC0A002084
:100CB000B70A0020470900204809002080B400AF8F
:100CC0003E4B00221A703D4B00225A703B4B1022C3
:100CD0009A703B4B00221A7014E0394B1B781A466D
:100CE000374B1B781946374B13F8313043F030033C
:100CF000D9B2344B03F83210314B1B780133DAB2DE
:100D00002F4B1A702E4B1B78072BE6D92C4B002249
:100D10001A7015E02A4B1B781846294B1B78294A74
:100D2000DB001344DB7943F01203DAB22549C30038
:100D30000B44DA71224B1B780133DAB2204B1A7064
:100D40001F4B1B78072BE5D91D4B00221A7014E0AE
:100D50001B4B1B781A4A12781A490A4492F8382019
:100D600062F06F02D2B217490B4483F83820144B5B
:100D70001B780133DAB2124B1A70114B1B78072B18
:100D8000E6D90F4B00221A7010E00D4B1B780C4A6D
:100D900012780C498A5C42F01802D1B2094AD15447
:100DA000074B1B780133DAB2054B1A70044B1B78E2
:100DB000072BEAD9BD465DF8047B7047AC0A0020DA
:100DC000AF0A00204000002090B482B000AF0023A2
:100DD000BB710023BB7194E00023FB718AE0F979B9
:100DE000BB794D4AC9000B4413441B7803F002033E
:100DF000002B16D0BB790133072B12DCF879BB79B5
:100E00000133FC79BA7901324349E40022440A44AF
:100E1000127842F02002D2B23F49C00003440B4492
:100E20001A70F979BB793C4AC9000B4413441B780A
:100E3000DBB25BB2002B16DAFB790133072B12DC35
:100E4000FB79581CBB79FA79541CBA793249E40011
:100E500022440A44127842F00802D2B22E49C0005D
:100E600003440B441A70F979BB792B4AC9000B442F
:100E700013441B7803F00803002B16D0FB79013BC9
:100E8000002B12DBFB79581EBB79FA79541EBA7914
:100E90002149E40022440A44127862F07F02D2B26F
:100EA0001D49C00003440B441A70F979BB791A4AF2
:100EB000C9000B4413441B7803F02003002B16D009
:100EC000BB79013B002B12DBF879BB79013BFC7944
:100ED000BA79013A1049E40022440A44127842F0F7
:100EE0000202D2B20C49C00003440B441A70FB79D1
:100EF0000133FB71FB79072B7FF671AFBB790133AF
:100F0000BB71BB79072B7FF667AF034BB8221A7012
:100F10000837BD4690BC70474000002080B400AF49
:100F2000074B01221A70074B01221A70054B02224F
:100F30005A70044B05229A70BD465DF8047B7047D9
:100F4000400A00204C09002080B400AF074B01226A
:100F50001A70074B01221A70054B03225A70044B7A
:100F600005229A70BD465DF8047B7047400A002058
:100F70004C09002080B400AF074B01221A70074BC8
:100F800001221A70054B04225A70044B05229A70F4
:100F9000BD465DF8047B7047400A00204C090020E4
:100FA00080B400AF044B01221A70044B05221A7062
:100FB000BD465DF8047B7047400A00204C090020C4
:100FC000B0B588B002AF3B4600221A60043300225D
:100FD0001A60043300221A60043300221A600433BA
:100FE00000221A6004330023BB751A4803F0C2F8CC
:100FF0000023BB7528E00023FB751FE0F97DBB7D56
:10100000154AC9000B4413441B781A46FB7DBC7D6E
:10101000FD7DB97D1148ED00294401440978084659
:1010200039460094019008460D4904F0DDFE3B4628
:10103000184603F09FF8FB7D0133FB75FB7D072B02
:10104000DCD9BB7D0133BB75BB7D072BD3D91837EA
:10105000BD46B0BDA099000840000020000000205F
:10106000A899000880B483B000AF03463960FB71D3
:1010700097F90730002B0BDA0D49FB7903F00F03CA
:10108000043B3A68D2B21201D2B20B441A7609E09C
:10109000084997F907303A68D2B21201D2B20B442C
:1010A00083F800230C37BD465DF8047B704700BF12
:1010B00000ED00E000E100E080B582B000AF7860B4
:1010C0007B68013BB3F1807F01D301230FE00A4B22
:1010D0007A68013A5A604FF0FF300F21FFF7C2FFE4
:1010E000054B00229A60044B07221A600023184621
:1010F0000837BD4680BD00BF10E000E080B500AFFE
:1011000001F076FD01F0A8FD0C4B1A680C4BA3FB17
:1011100002139B091846FFF7CFFF0346002B00D0B0
:10112000FEE74FF4407001F0DDFF4FF0FF3000218B
:10113000FFF798FF034B00221A6080BDA00000203B
:10114000D34D6210BC0A002080B400AF0B4B1B686B
:1011500001334FF47A7202FB03F2094B9B68D90802
:10116000084BA3FB01035B08D21A074B1A60064B1E
:101170001B681846BD465DF8047B7047BC0A00201A
:1011800010E000E019866118B80A002080B485B02C
:1011900000AF7860084B1B68FB6000BF064B1B6804
:1011A000FA68D21A7B681344002BF7D11437BD4676
:1011B0005DF8047B704700BFBC0A002080B582B098
:1011C00000AF7860396000BFFFF7BEFF02463B68A2
:1011D000D21A7B689A42F7D30837BD4680BD00BF5C
:1011E00080B586B000AF4FF48040012100F070FD63
:1011F0000420012100F030FD02200D21FEF7C4FF84
:1012000000233B730023FB734FF40053BB6007F1D3
:1012100008031048194601F0FBFB4FF400533B61F3
:1012200000233B7508237B750123BB7507F1100371
:10123000184601F0C1FE28233B7101237B71002376
:10124000BB710123FB713B1D184601F05DFF183790
:10125000BD4680BD0008024080B58AB000AF0220C4
:10126000012100F017FD10233B62022387F8243090
:10127000022387F82530002387F82630022387F8D9
:10128000273007F120031A48194601F0C1FB18481E
:101290000421022201F066FC6323BB6140F2A31328
:1012A000BB820023BB830023FB8207F11403114898
:1012B000194602F0A3FB60233B8001237B800023BF
:1012C000BB600023BB813B460A48194602F04EFC36
:1012D0000848082102F038FE0648012102F006FC09
:1012E0000448012102F022FC2837BD4680BD00BF22
:1012F000000402400004004080B483B000AF786076
:10130000054B05225A637B689AB2044B1A800C374E
:10131000BD465DF8047B704700040040A20A00202F
:1013200080B58AB000AF7860396000237B6200230B
:101330003B620023FB610023BB617B681B8A9BB27D
:101340007B627B6A23F440537B623B68DB887A6A6A
:1013500013437B627B6A9AB27B681A827B689B89A3
:101360009BB27B627B6A23F4B05323F00C037B6255
:101370003B689A883B681B8913439AB23B685B8938
:1013800013439BB27A6A13437B627B6A9AB27B688F
:101390009A817B689B8A9BB27B627B6A23F4407351
:1013A0007B623B689B897A6A13437B627B6A9AB251
:1013B0007B689A8207F10803184600F0A3FB7A685D
:1013C000314B9A4203D07A68304B9A4202D17B6902
:1013D0003B6201E03B693B627B689B899BB29BB2AD
:1013E0001BB2002B0CDA3A6A13469B0013449A0096
:1013F0001A443B681B685B00B2FBF3F3FB610BE034
:101400003A6A13469B0013449A001A443B681B68CF
:101410009B00B2FBF3F3FB61FA691D4BA3FB0213C4
:101420005B091B017B627B6A1B09642202FB03F3DD
:10143000FA69D31ABB617B689B899BB29BB21BB2D2
:10144000002B0DDABB69DB0003F13202104BA3FB6A
:1014500002135B0903F007037A6A13437B620CE013
:10146000BB691B0103F13202094BA3FB02135B09A9
:1014700003F00F037A6A13437B627B6A9AB27B683C
:101480001A812837BD4680BD00100140001401407C
:101490001F85EB5180B483B000AF78600B46FB70C2
:1014A000FB78002B08D07B689B899BB243F40053E8
:1014B0009AB27B689A8107E07B689B899BB223F490
:1014C00000539AB27B689A810C37BD465DF8047B65
:1014D000704700BF80B483B000AF78600B46FB70EC
:1014E000FB78002B0AD07B689B899BB26FEA434351
:1014F0006FEA53439AB27B689A8107E07B689B89C5
:101500009BB2C3F30E039AB27B689A810C37BD4637
:101510005DF8047B704700BF80B483B000AF786093
:101520000B467B807B88C3F308039AB27B689A8062
:101530000C37BD465DF8047B704700BF80B487B0B0
:1015400000AF786013460A467A807B7000233B61C7
:101550000023FB600023BB6000237B617B687B6111
:101560007B88DBB25B09DBB23B617B8803F01F0346
:10157000FB60FB68012202FA03F3BB603B69012BAD
:1015800003D17B690C337B6109E03B69022B03D1FA
:101590007B6910337B6102E07B6914337B617B786C
:1015A000002B06D07B697A691168BA680A431A6011
:1015B00006E07B697A691168BA68D2430A401A600A
:1015C0001C37BD465DF8047B704700BF80B485B012
:1015D00000AF78600B467B800023FB737B681B8821
:1015E0009AB27B8813409BB2002B02D00123FB737D
:1015F00001E00023FB73FB7B18461437BD465DF802
:10160000047B704780B487B000AF78600B467B8066
:101610000023FB6000237B610023BB600023FB747D
:101620007B88DBB25B09DBB2BB607B8803F01F0306
:101630007B617B69012202FA03F37B61BB68012BAA
:1016400006D17B689B899BB27A6913407B610FE06E
:10165000BB68022B06D17B681B8A9BB27A69134058
:101660007B6105E07B689B8A9BB27A6913407B6152
:101670007B881B0A9BB2FB60FB68012202FA03F322
:10168000FB607B681B889BB2FA681340FB607B6938
:10169000002B05D0FB68002B02D00123FB7401E076
:1016A0000023FB74FB7C18461C37BD465DF8047BA9
:1016B000704700BF80B582B000AF0120012100F06B
:1016C000CBFA0220012100F0C7FA0420012100F02A
:1016D000C3FA8020012100F0BFFA64233B6001239C
:1016E0003B710023BB7103237B710023FB713B46DD
:1016F0001D48194601F08CF94FF470533B603B468E
:101700001A48194601F084F903233B603B46184808
:10171000194601F07DF94FF440433B600223FB7111
:101720003B461348194601F073F903233B6002233B
:10173000FB713B460F48194601F06AF90C484FF41B
:10174000804101F001FA0A484FF4004101F0FCF930
:101750000848012101F0F8F90648022101F0F4F9E6
:101760000837BD4680BD00BF0000024000040240B3
:1017700000080240001C024080B582B000AF042087
:10178000012100F087FA4FF470733B6002233B7134
:1017900003237B710023BB710023FB713B460D4883
:1017A000194601F035F90B480621022201F0DAF959
:1017B00008480721022201F0D5F906480821022233
:1017C00001F0D0F903480921022201F0CBF90837D2
:1017D000BD4680BD0004024080B588B000AFFFF771
:1017E000CBFF40F2E733BB610323BB820023BB8303
:1017F0000023FB8207F114032248194602F0FEF889
:1018000060233B8001237B800023BB811E4B1B8810
:10181000BB603B461B48194602F0A8F9194808214D
:1018200002F092FB194B1B88BB603B4615481946DA
:1018300002F016FA1348082102F0A2FB144B1B8891
:10184000BB603B460F48194602F092FA0D4808214A
:1018500002F0B4FB0F4B1B88BB603B46094819469E
:1018600002F00CFB0748082102F0C4FB05480121E7
:1018700002F03CF90348012102F058F92037BD4637
:1018800080BD00BF00080040880900208A090020B0
:101890008C0900208E09002080B483B000AF7860EE
:1018A0007B68B3F5967F02DD4FF496737B607B68AF
:1018B00013F5967F01DA0C4B7B607B68002B06DB0F
:1018C0000A4B7A685A63094B00229A6306E0074B79
:1018D00000225A63054B7A6852429A630C37BD4620
:1018E0005DF8047B704700BFD4FEFFFF0008004096
:1018F00080B483B000AF78607B68B3F5967F02DD7B
:101900004FF496737B607B6813F5967F01DA0C4B7E
:101910007B607B68002B06DB0A4B7A681A64094BF4
:101920000022DA6306E0074B00221A64054B7A684E
:101930005242DA630C37BD465DF8047B704700BF46
:10194000D4FEFFFF0008004080B582B000AF144B0A
:101950007B60144B3B6007E03B681A1D3A607A6875
:10196000111D796012681A603A680F4B9A42F3D3DE
:101970000E480F494FF000028842B8BF40F8042BD0
:10198000FFF6FAAFDFF82C00016841F47001016046
:1019900001F02EF900F01AF80837BD4680BD00BFEF
:1019A000AC9B0008000000204409002044090020EE
:1019B000C40A002088ED00E080B400AFFEE700BF5D
:1019C00080B500AF01F0FEFB80BD00BF80B590B0D8
:1019D00000AF3B4600221A60043300221A60043331
:1019E00000221A60043300221A60043300221A60B5
:1019F000043300221A60043300221A6004330022E8
:101A00001A60043300221A60043300221A6004337F
:101A100000221A60043300221A60043300221A8064
:101A200002330023FB63002387F83B30FFF766FB9C
:101A3000FFF740FEFFF7D4FBFFF70EFC254802F04E
:101A40003DFBFFF7C9FE00F05DFF01F0F3F922480E
:101A500002F090FB6420FFF74FFC9620FFF796FB07
:101A60006420FFF749FC1D48022101F05FF800BF28
:101A70001B4B1B78002BFBD1194B01221A70322013
:101A8000FFF73AFC174802F075FB4FF47A60FFF756
:101A90007DFB00F09BFF00F0B1FFFFF70FF9FFF7B0
:101AA00053FBF863FFF750FB786300F051FC00F044
:101AB00087F9FEF7A7FB7A6BFB6BD21A0A4B9A42A7
:101AC00002D9FFF741FBF8634FF47A70796BFFF7A7
:101AD00075FBE7E700181500B899000800080240F8
:101AE0008C000020CC9900088096980080B400AF4C
:101AF000034B00221A70BD465DF8047B704700BF9F
:101B00008C00002080B489B000AF78600023BB61F6
:101B100000237B610023FB6102233B610023FB6008
:101B20000223BB60484B9B6803F00C03BB61BB699D
:101B3000042B07D0082B09D0002B3FD17B68434AE8
:101B40001A603FE07B68424A1A603BE03E4B5B68AC
:101B500003F480039B0DFB603B4B5B6803F03F038A
:101B6000BB60FB68002B0DD0394ABB68B2FBF3F2B7
:101B7000354B596847F6C0730B409B0903FB02F3D2
:101B8000FB610CE0314ABB68B2FBF3F22E4B5968A3
:101B900047F6C0730B409B0903FB02F3FB612A4B22
:101BA0005B6803F440331B0C01335B003B61FA6953
:101BB0003B69B2FBF3F27B681A6003E07B68234A5F
:101BC0001A6000BF204B9B6803F0F003BB61BB6948
:101BD0001B09BB611F4ABB6913441B78DBB27B61E5
:101BE0007B681A687B69DA407B685A60164B9B6891
:101BF00003F4E053BB61BB699B0ABB61154ABB6937
:101C000013441B78DBB27B617B685A687B69DA40DE
:101C10007B689A600C4B9B6803F46043BB61BB69B3
:101C20005B0BBB610B4ABB6913441B78DBB27B6166
:101C30007B685A687B69DA407B68DA602437BD4686
:101C40005DF8047B704700BF003802400024F400B8
:101C500040787D019000002080B483B000AF7860B0
:101C60000B46FB70FB78002B06D0094B084A116B22
:101C70007A680A431A6306E0054B054A116B7A68D5
:101C8000D2430A401A630C37BD465DF8047B7047A7
:101C90000038024080B483B000AF78600B46FB7020
:101CA000FB78002B06D0094B084A116C7A680A436E
:101CB0001A6406E0054B054A116C7A68D2430A4063
:101CC0001A640C37BD465DF8047B7047003802404B
:101CD00080B483B000AF78600B46FB70FB78002BBC
:101CE00006D0094B084A516C7A680A435A6406E0E8
:101CF000054B054A516C7A68D2430A405A640C3746
:101D0000BD465DF8047B70470038024080B400AFE8
:101D1000BD465DF8047B704780B400AFFEE700BFAE
:101D200080B400AFFEE700BF80B400AFFEE700BFA5
:101D300080B400AFFEE700BF80B400AFBD465DF8E1
:101D4000047B704780B400AFBD465DF8047B7047EC
:101D500080B400AFBD465DF8047B704780B500AF2E
:101D60000A4B1B685A1C094B1A60094B1B88002B35
:101D700002D1084B00225A63054B1B889BB2013BE2
:101D80009AB2034B1A80FFF71BFE80BDBC0A0020ED
:101D9000A20A00200004004080B500AF4FF40050BC
:101DA00001F078F90346002B08D0C820FFF7EEF9C0
:101DB000FFF79CFE4FF4005001F086F980BD00BF94
:101DC000B0B582B000AFAC480421042201F092F813
:101DD00003461A46A94B1A60A7480821042201F0BD
:101DE00089F803461A46A64B1A60A3480F2104221D
:101DF00001F080F803461A46A24B1A609E4807215C
:101E0000042201F077F803461A469F4B1A60FFF749
:101E10009BF978609D48022100F088FE3C2079689B
:101E2000FFF7CCF994480821042201F063F8034637
:101E30001A46934B1B68D21A914B1A6093480221A1
:101E400000F082FE8E4B1B68002B02DA8C4B0022C6
:101E50001A608B4B1B68184603F066F902460B4666
:101E60001046194678A3D3E9002303F0C3F90246CC
:101E70000B461046194603F09FFC03469FED840A6B
:101E800000EE903A02F0E6F910EE103A184603F030
:101E90005DF902460B46104619464FF000027D4B95
:101EA00003F0A8F902460B4614461D46744B1B6806
:101EB000184603F039F902460B461046194664A34A
:101EC000D3E9002303F096F902460B461046194663
:101ED00003F072FC03469FED6E0A00EE903A02F0AA
:101EE000B9F910EE103A184603F030F902460B46E5
:101EF0001046194658A3D3E9002303F07BF90246A4
:101F00000B462046294602F0C3FF02460B46104608
:101F100019464FF00002604B03F06CF902460B4685
:101F20001046194603F028FC03469AB25B4B1A8010
:101F30008C207968FFF742F959484FF4804100F04E
:101F4000F5FDC8207968FFF739F94B4804210422D0
:101F500000F0D0FF03461A46484B1B68D21A474B85
:101F60001A604F484FF4804100F0EEFD434B1B6870
:101F7000002B02DA414B00221A60404B1B681846C6
:101F800003F0D2F802460B461046194634A3D3E9B3
:101F9000002303F02FF902460B461046194603F0C2
:101FA0000BFC03469FED3A0A00EE903A02F052F91C
:101FB00010EE103A184603F0C9F802460B461046D8
:101FC000194629A3D3E9002303F014F902460B466E
:101FD00014461D46294B1B68184603F0A5F8024617
:101FE0000B46104619461AA3D3E9002303F002F961
:101FF00002460B461046194603F0DEFB03469FEDF2
:10200000240A00EE903A02F025F910EE103A184634
:1020100003F09CF802460B461046194614A3D3E978
:10202000002303F0E7F802460B462046294602F05B
:102030002FFF02460B46104619464FF00002164B82
:1020400003F0D8F82EE000BF39B4C876BE9F7ABF3F
:10205000C7BAB88D06F046BF7B14AE47E17A26407A
:102060002D431CEBE2367ABFD7A3703D0A97374069
:10207000EC51B81E85EB2640002001409C09002051
:1020800098090020A0090020A4090020001C02409B
:10209000A1F82D400080364000002440A80900200F
:1020A0000008024002460B461046194603F064FB46
:1020B00003469AB29A4B1A804FF48C707968FFF7F6
:1020C0007DF89848012100F031FD97484FF4004118
:1020D00000F02CFD4FF4AA707968FFF76FF8934871
:1020E0000F21042200F006FF03461A46904B1B689E
:1020F000D21A8F4B1A608D480721042200F0FAFE95
:1021000003461A468B4B1B68D21A8A4B1A608548C5
:10211000012100F019FD84484FF4004100F014FD46
:10212000834B1B68002B02DA814B00221A60814B23
:102130001B68002B02DA7F4B00221A607C4B1B6865
:10214000184602F0F1FF02460B46104619466EA3F0
:10215000D3E9002303F04EF802460B461046194619
:1021600003F02AFB03469FED740A00EE903A02F05A
:1021700071F810EE103A184602F0E8FF02460B46DE
:102180001046194662A3D3E9002303F033F8024650
:102190000B4614461D46664B1B68184602F0C4FFEA
:1021A00002460B46104619465BA3D3E9002303F011
:1021B00021F802460B461046194603F0FDFA034685
:1021C0009FED5D0A00EE903A02F044F810EE103AEE
:1021D000184602F0BBFF02460B46104619464FF068
:1021E0006632564B03F006F802460B462046294657
:1021F00002F04EFE02460B46104619464FF0000212
:102200004F4B02F0F7FF02460B461046194603F00B
:10221000B3FA03469AB24B4B1A80464B1B681846DA
:1022200002F082FF02460B461046194636A3D3E958
:10223000002302F0DFFF02460B461046194603F06A
:10224000BBFA03469FED3C0A00EE903A02F002F81A
:1022500010EE103A184602F079FF02460B4610467F
:1022600019462BA3D3E9002302F0C4FF02460B4614
:1022700014461D462F4B1B68184602F055FF0246B8
:102280000B461046194624A3D3E9002302F0B2FFFF
:1022900002460B461046194603F08EFA03469FEDA0
:1022A000260A00EE903A01F0D5FF10EE103A1846DB
:1022B00002F04CFF02460B46104619464FF06632BC
:1022C0001E4B02F097FF02460B462046294602F0BD
:1022D000DFFD02460B46104619464FF00002184B30
:1022E00002F088FF02460B461046194603F044FAF6
:1022F00003469AB2144B1A8000F086F800F0A6F854
:102300000837BD46B0BD00BF462575029A087BBFA1
:1023100085EB51B81E8535402D431CEBE2364ABF94
:10232000AA090020001C02400008024000200140D1
:10233000A0090020A4090020A1F82D4066662640CF
:1023400000002440AC090020AE090020AFF300805B
:1023500080B500AF28480321042200F0CBFD0346DE
:10236000184602F0E1FE02460B46104619461CA331
:10237000D3E9002302F08AFD02460B4610461946B7
:1023800019A3D3E9002302F035FF02460B4610469D
:10239000194617A3D3E9002302F02CFF02460B468F
:1023A0001046194603F008FA0246144B1A60144B03
:1023B0001B6807EE903AB8EEE77A104BD3ED006A4F
:1023C000DFED107AC6EEA77A77EE277AFDEEE77A90
:1023D00017EE902A0A4B1A6080BD00BFAFF3008051
:1023E00048E17A14AEE29F404FAF94658863E33FC3
:1023F000000000000088C34000200140B809002010
:10240000C009002000007A4480B500AF0B480921C4
:10241000042200F06FFD03461A46094B1A60084B70
:102420001B6840F24C4202FB03F3064A82FB031294
:102430009212DB17D21A044B1A6080BD00200140B3
:10244000900900206D339D399409002080B586B035
:1024500000AF3B1D00221A60043300221A600433CF
:1024600000221A60043300221A60043300221A602A
:1024700004333E4B1B68B3F52A7F74DA3B4B1B6871
:102480003A1D10463A491A4603F0AEFC3B1D184669
:1024900001F070FE374B00221A60374B00221A60A1
:1024A0000020FFF725FA0020FFF7F6F9334B002252
:1024B0005A6333484FF4806100F046FB30484FF4D4
:1024C000006100F041FB2F48402100F03DFB2D480A
:1024D000202100F039FB2A484FF4005100F034FB72
:1024E0002848042100F030FB2748012100F02CFB94
:1024F0002548022100F028FB21484FF4805100F0CC
:1025000023FBC820FEF742FE1C4B05225A631C48E1
:102510004FF4806100F00AFB19484FF4006100F0AD
:1025200005FB1848402100F001FB1648202100F06F
:10253000FDFA13484FF4005100F0F8FA1148042155
:1025400000F0F4FA1048012100F0F0FA0E480221E0
:1025500000F0ECFA0A484FF4805100F0E7FAC82086
:10256000FEF714FE96E71837BD4680BD940900209B
:10257000D8990008040A00200C0A0020000400403A
:1025800000040240000002400008024080B485B010
:1025900000AF786039600023FB600023FB727B682A
:1025A0005B68FB60FB6823F0407323F48073FB607F
:1025B0003B681B791A023B681B681343FA68134394
:1025C000FB607B68FA685A607B689B68FB60FA680E
:1025D000174B1340FB603B681A693B68DB681A4382
:1025E0003B689B681A433B685B795B001343FA685E
:1025F0001343FB607B68FA689A607B68DB6AFB6068
:10260000FB6823F47003FB603B681B7D013BDAB27F
:10261000FB7A1343FB72FB7A1B05FA681343FB60DA
:102620007B68FA68DA621437BD465DF8047B704750
:10263000FDF7FFC080B485B000AF78600023FB6079
:102640000E4B5B68FB60FA680D4B1340FB607B68C8
:102650001A687B685B681A437B689B681A437B68CF
:10266000DB681343FA681343FB60044BFA685A6053
:102670001437BD465DF8047B704700BF002301405E
:10268000E030FCFF80B483B000AF78600B46FB7095
:10269000FB78002B06D07B689B6843F001027B68C7
:1026A0009A6005E07B689B6823F001027B689A6072
:1026B0000C37BD465DF8047B704700BF80B485B021
:1026C00000AF7860F970BA707B700023FB60002364
:1026D000BB60FB78092B23D97B68DB68FB60FB7848
:1026E000A3F10A0213465B001344072202FA03F324
:1026F000BB60BB68DB43FA681340FB607978FB780A
:10270000A3F10A0213465B00134401FA03F3BB6012
:10271000FA68BB681343FB607B68FA68DA601EE006
:102720007B681B69FB60FA7813465B001344072241
:1027300002FA03F3BB60BB68DB43FA681340FB603B
:102740007978FA7813465B00134401FA03F3BB600F
:10275000FA68BB681343FB607B68FA681A61BB7850
:10276000062B21D87B685B6BFB60BB785A1E134637
:102770009B0013441F2202FA03F3BB60BB68DB43D8
:10278000FA681340FB60F978BB785A1E13469B0029
:10279000134401FA03F3BB60FA68BB681343FB60A0
:1027A0007B68FA685A6347E0BB780C2B21D87B68BA
:1027B0001B6BFB60BB78DA1F13469B0013441F2280
:1027C00002FA03F3BB60BB68DB43FA681340FB60AB
:1027D000F978BB78DA1F13469B00134401FA03F320
:1027E000BB60FA68BB681343FB607B68FA681A63D6
:1027F00022E07B68DB6AFB60BB78A3F10D02134625
:102800009B0013441F2202FA03F3BB60BB68DB4347
:10281000FA681340FB60F978BB78A3F10D02134608
:102820009B00134401FA03F3BB60FA68BB681343CF
:10283000FB607B68FA68DA621437BD465DF8047B9A
:10284000704700BF80B483B000AF78607B689B683E
:1028500043F080427B689A600C37BD465DF8047B8C
:10286000704700BF80B483B000AF78607B68DB6CDA
:102870009BB218460C37BD465DF8047B704700BF1D
:1028800080B485B000AF786013460A467A807B70CA
:102890000023FB607B88DBB2FB60FB68012202FA4D
:1028A00003F3FB607B78002B06D07B685A68FB68DB
:1028B0001A437B685A6006E07B685A68FB68DB4312
:1028C0001A407B685A601437BD465DF8047B704738
:1028D00080B485B000AF78600B46FB700023FB73BB
:1028E0007B681A68FB781340002B02D00123FB732E
:1028F00001E00023FB73FB7B18461437BD465DF8EF
:10290000047B704780B582B000AF09200121FFF73A
:10291000C1F902233B710123FB7148F203033B60C1
:102920003B462148194600F073F808233B603B46BC
:102930001E48194600F06CF81B480021022200F0E6
:1029400011F919480121022200F00CF916480F2153
:10295000012200F007F915480321012200F002F9D5
:1029600013484FF0FF3101F0B3F84FF080404FF0C3
:10297000FF3101F0ADF80E4803210022002301F0E1
:1029800057FB4FF0804003210022022301F050FB4F
:102990000748012101F0CAF84FF08040012101F001
:1029A000C5F80837BD4680BD000002400004024063
:1029B000000C004080B400AF034B5B6A1846BD4674
:1029C0005DF8047B704700BF000C004080B400AF8E
:1029D000034B00225A62BD465DF8047B704700BF7E
:1029E000000C004080B400AF4FF080435B6A5B4254
:1029F0001846BD465DF8047B704700BF80B400AF49
:102A00004FF0804300225A62BD465DF8047B704758
:102A100080B487B000AF7860396000237B61002309
:102A20003B610023FB6000237B6176E07B69012230
:102A300002FA03F33B613B681A683B691340FB6091
:102A4000FA683B699A4265D17B681A687B695B00CA
:102A5000032101FA03F3DB431A407B681A607B68A9
:102A60001A683B681B7919467B695B0001FA03F31E
:102A70001A437B681A603B681B79012B03D03B68C3
:102A80001B79022B2ED17B689A687B695B0003213E
:102A900001FA03F3DB431A407B689A607B689A680B
:102AA0003B685B7919467B695B0001FA03F31A43C3
:102AB0007B689A607B685A687B699BB2012101FA46
:102AC00003F3DB431A407B685A607B685A683B68B3
:102AD0009B7919467B699BB201FA03F39BB21A43B7
:102AE0007B685A607B68DA687B699BB25B00032174
:102AF00001FA03F3DB431A407B68DA607B68DA682B
:102B00003B68DB7919467B695B0001FA03F31A43E2
:102B10007B68DA607B6901337B617B690F2B85D928
:102B20001C37BD465DF8047B704700BF80B483B09E
:102B300000AF78600B467B807B687A881A830C37FD
:102B4000BD465DF8047B704780B483B000AF786009
:102B50000B467B807B687A885A830C37BD465DF8CC
:102B6000047B704780B485B000AF786013460A4696
:102B70007A807B700023FB600023BB607A787B88BF
:102B800003F007039B0002FA03F3FB607B88DB087A
:102B90009BB21A467B88DB089BB219467B680831DA
:102BA00053F821107B8803F007039B000F2000FAE5
:102BB00003F3DB4319407B68083243F822107B881B
:102BC000DB089BB21A467B68083253F82220FB6868
:102BD0001343BB607B88DB089BB21A467B680832D4
:102BE000B96843F822101437BD465DF8047B70477E
:102BF00080B500AF154B154AD2F8882042F4700218
:102C0000C3F88820124B124A126842F001021A607F
:102C10000F4B00229A600E4A0D4B1B6823F0847301
:102C200023F4803313600A4B0A4A5A60084B084A5F
:102C3000126822F480221A60054B0022DA6000F04C
:102C400087F8024B4FF000629A6080BD00ED00E013
:102C5000003802401030002480B487B000AF002359
:102C60003B6100237B610223FB600023BB600223E6
:102C70007B60324B9B6803F00C033B613B69042B88
:102C800007D0082B09D0002B3FD12D4B2D4A1A60BD
:102C90003FE02B4B2C4A1A603BE0284B5B6803F467
:102CA00080039B0DBB60254B5B6803F03F037B609B
:102CB000BB68002B0DD0244A7B68B2FBF3F21F4B9C
:102CC000596847F6C0730B409B0903FB02F37B6115
:102CD0000CE01C4A7B68B2FBF3F2184B596847F6CC
:102CE000C0730B409B0903FB02F37B61134B5B68D2
:102CF00003F440331B0C01335B00FB607A69FB6813
:102D0000B2FBF3F20E4B1A6003E00D4B0D4A1A6052
:102D100000BF0A4B9B6803F0F0031B090B4AD35C0E
:102D2000DBB23B61064B1A683B69DA40044B1A6020
:102D30001C37BD465DF8047B704700BF0038024079
:102D4000A00000200024F40040787D01A4000020B1
:102D500080B400AF234B234A126C42F080521A64B5
:102D6000214B214A126842F440421A601D4B1D4A11
:102D700092689A601B4B1B4A926842F400429A6028
:102D8000184B184A926842F4A0529A60154B174AA1
:102D90005A60144B134A126842F080721A6000BFE6
:102DA000104B1B6803F00073002BF9D0104B40F25E
:102DB00005621A600B4B0B4A926822F003029A607C
:102DC000084B084A926842F002029A6000BF054B25
:102DD0009B6803F00C03082BF9D1BD465DF8047B1A
:102DE000704700BF003802400070004010540007D8
:102DF000003C024080B485B000AF78600B4B1B688C
:102E0000002B02D1094B0A4A1A60084B1B68FB6071
:102E1000064B1A687B681A44044B1A60FB68184614
:102E20001437BD465DF8047B704700BFC809002019
:102E3000C40A002080B58CB000AF4FF4807001212F
:102E4000FEF746FF98233B6003233B710023FB7191
:102E50003B4624481946FFF7DBFD03233B60032371
:102E60003B710023FB713B461F481946FFF7D0FD1D
:102E700030233B6003233B710023FB713B461B481F
:102E80001946FFF7C5FD0023BB604FF48033FB609C
:102E900000233B614FF470637B6107F10803184620
:102EA000FFF7C8FB0023BB6100233B7700237B7740
:102EB00000237B620023BB62012387F82C3007F1DB
:102EC00018030B481946FFF761FB094840F205213A
:102ED0000122FFF7D5FC06480121FFF7D3FB30376D
:102EE000BD4680BD000002400004024000080240D0
:102EF0000020014080B582B000AF786013460A46DA
:102F0000FA70BB70FA78BB78786811460122FFF737
:102F1000D5FB7868FFF796FC00BF78680221FFF7C1
:102F2000D7FC0346002BF8D07868FFF79BFC0346DC
:102F300018460837BD4680BD80B584B000AF7860C4
:102F40007B68FB607B685B687B60F86802F092FCE2
:102F5000054B1B889BB2013B9AB2034B1A807B68DE
:102F600018461037BD4680BDCC09002080B584B01E
:102F700000AF786013460A46FA70BB70082002F072
:102F800071FC0346FB60FB68FA781A70FB68BA783C
:102F90005A70FB687A685A60064B1B889BB20133F3
:102FA0009AB2044B1A80FB687B607B681846103726
:102FB000BD4680BDCC09002080B485B000AF7860EC
:102FC0000023FB60324BFB607B689B79002B4DD06C
:102FD0002F4B2F4A11687A681268D2430A401A6050
:102FE0002B4B2B4A51687A681268D2430A405A60C8
:102FF0007B681B79FA681344FB60FB68FA68116808
:103000007A6812680A431A60214B214A91687A68EB
:103010001268D2430A409A601D4B1D4AD1687A68F3
:103020001268D2430A40DA607B685B79102B0ED1BC
:10303000174B174A91687A6812680A439A60144BD2
:10304000134AD1687A6812680A43DA601BE0104BB1
:10305000FB607B685B79FA681344FB60FB68FA6885
:1030600011687A6812680A431A600CE07B681B7961
:10307000FA681344FB60FB68FA6811687A681268A2
:10308000D2430A401A601437BD465DF8047B70478E
:10309000003C014080B485B000AF78600023FB7332
:1030A000084B5A697B681340002B02D00123FB7345
:1030B00001E00023FB73FB7B18461437BD465DF827
:1030C000047B7047003C014080B483B000AF78605F
:1030D000034B7A685A610C37BD465DF8047B704734
:1030E000003C014080B483B000AF7860054A7B6843
:1030F00043F0BF6343F40033D3600C37BD465DF843
:10310000047B704700ED00E080B485B000AF7860CC
:103110000023FB730023BB730F237B737B68DB7877
:10312000002B37D0254BDB68DB4303F4E0631B0A3D
:10313000FB73FB7BC3F10403BB737A7BFB7B42FA1B
:1031400003F37B737B685B781A46BB7B02FA03F35D
:10315000FB737B689A787B7B1340DAB2FB7B13436B
:10316000FB73FB7B1B01FB73154A7B681B781344C5
:10317000FA7B83F80023124B7A6812785209D2B294
:103180007968097801F01F01012000FA01F143F884
:1031900022100EE00A4B7A6812785209D2B279688E
:1031A000097801F01F01012000FA01F1203243F8F3
:1031B00022101437BD465DF8047B704700ED00E037
:1031C00000E100E080B584B000AF00F017FB00F034
:1031D000EBF800F07DF900F055FA664B1B6807EE3E
:1031E000903AB8EEE77A644BD3ED006A624BD3EDC8
:1031F000007A66EEA76A614BD3ED007A77EEA77A84
:10320000C6EEA77AB4EEE77AF1EE10FA03D55C4B7E
:1032100000221A6002E05A4B32221A60594B1B6896
:10322000002BB8BF5B4207EE903AB8EEE77A564BF8
:10323000D3ED006A544BD3ED007A66EEA76A534B88
:10324000D3ED007A77EEA77AC6EEA77AB4EEE77AE6
:10325000F1EE10FA03D54E4B00221A600BE0494BF9
:103260001B68002B03DD4A4B32221A6003E0484BF7
:103270006FF031021A60474B1B78002B76D13E4B22
:10328000D3ED007AFDEEE77A17EE903A002B6DDB76
:10329000394BD3ED007AFDEEE77A17EE903A002B2A
:1032A00064DC394BD3ED007AFDEEE77A17EE903A05
:1032B000002B5BDB344BD3ED007AFDEEE77A17EEA3
:1032C000903A002B52DC2E4B1B68002B4ED1304B1A
:1032D0001B68002B4AD13B4600221A6004330022AF
:1032E0001A60043300221A60043300221A80023369
:1032F00000221A700133284B1B78002B33D0264B49
:103300001B78022B0DD1254B1B68254A82FB03122B
:103310001213DB17D31A5A3BA22202FB03F2194BFA
:103320001A601D4B1B78032B0DD11C4B1B681C4ACC
:1033300082FB03121213DB17D31A5A33A22202FBA9
:1033400003F2104B1A600F4B1B6813F1770F06DB6B
:103350000C4B1B68772B02DC0E4B01221A700E4BB4
:1033600000221A7002E00B4B01221A701037BD4682
:1033700080BD00BFF8090020000A0020B80000202E
:10338000040A0020FC090020080A0020C0000020D8
:103390000C0A0020400A0020500A0020C00900202A
:1033A000AD8BDB680000000080B500AFFFF71AFBB3
:1033B0000346184601F0B8FE02460B461046194671
:1033C00040A3D3E9002301F015FF02460B46104647
:1033D000194602F0A9F902462D4B1A60FFF7EAFAE6
:1033E00002462C4B1A602A4B1A682B4B1B68D21AC8
:1033F0002A4B1A60274B1A68294B1B68D21A294B93
:103400001A60264B1A68274B1B681344DA0F1344C3
:103410005B101A46244B1A601D4B1A681E4B1A602B
:103420001C4B1A681E4B1A60204B1A681B4B1B68FA
:103430001A441E4B1A601E4B1A681A4B1B681A441A
:103440001B4B1A60194B1A68194B1B681344DA0F8F
:1034500013445B101A46174B1A60174B1A68124B2D
:103460001B68D21A144B1A600C4B1A680D4B1B6860
:10347000D21A124B1B681A44104B1A60104B1A6870
:10348000094B1B681A440E4B1A6080BDAFF30080D5
:10349000D0090020D4090020E4090020D809002028
:1034A000E8090020DC090020E0090020EC090020E8
:1034B000F0090020F4090020F8090020FC09002090
:1034C00050090020E9263108AC1CF03FAFF3008022
:1034D00080B400AF634B1B6807EE903AB8EEE77A12
:1034E000614BD3ED007AB4EEE77AF1EE10FA23DD0A
:1034F0005D4B93ED007A5D4BD3ED007A77EE277A42
:10350000594BC3ED007A574B1B6807EE903AB8EE63
:10351000E77A554BD3ED007AB4EEE77AF1EE10FA84
:1035200000D439E04F4B1B6807EE103AF8EEC77A2B
:103530004D4BC3ED007A2FE04A4B1B6807EE903AE3
:10354000B8EEE77A484BD3ED007AB4EEE77AF1EEC5
:1035500010FA21D5444B93ED007A454BD3ED007A18
:1035600077EE677A404BC3ED007A3E4B1B6807EE5F
:10357000903AB8EEE77A3C4BD3ED007AB4EEE77AB6
:10358000F1EE10FA08DD374B1B6807EE103AF8EE43
:10359000C77A354BC3ED007A364B1B6807EE903A7D
:1035A000B8EEE77A344BD3ED007AB4EEE77AF1EE79
:1035B00010FA23DD304B93ED007A304BD3ED007AD7
:1035C00077EE277A2C4BC3ED007A2A4B1B6807EE67
:1035D000903AB8EEE77A284BD3ED007AB4EEE77A6A
:1035E000F1EE10FA00D439E0224B1B6807EE103AD6
:1035F000F8EEC77A204BC3ED007A2FE01D4B1B6815
:1036000007EE903AB8EEE77A1B4BD3ED007AB4EEB2
:10361000E77AF1EE10FA21D5174B93ED007A184BAB
:10362000D3ED007A77EE677A134BC3ED007A114B36
:103630001B6807EE903AB8EEE77A0F4BD3ED007AAD
:10364000B4EEE77AF1EE10FA08DD0A4B1B6807EEDC
:10365000103AF8EEC77A084BC3ED007ABD465DF824
:10366000047B7047040A0020000A0020B4000020F8
:10367000B80000200C0A0020080A0020BC0000202E
:10368000C000002080B582B000AF00237B60484BB3
:103690001A68484B1B681A44474B1A60444B1A6817
:1036A000444B1B68D21A454B1A60454B1B68DA0F16
:1036B00013445B107B60414B1A687B6813443B608A
:1036C000404B1B6806EE103AB8EEC67A3E4BD3ED7F
:1036D000006A394B1B6806EE103AF8EEC67A76EEB1
:1036E000E77A77EE277AFDEEE77A17EE902A354BE8
:1036F0001A60364B1B6807EE903AB8EEE77A344B07
:10370000D3ED006A3B6806EE103AF8EEC67A76EE24
:10371000E77A77EE277AFDEEE77A17EE902A2B4BC1
:103720001A602C4B1B78274A126802FB03F22A4BC3
:103730001B782449086829490968411A01FB03F3E9
:103740001A44274B1A60274B1B78204A126802FB49
:1037500003F2254B1B781D49086824490968411A62
:1037600001FB03F31A44224B1A60164B1A681B4BD9
:103770001A60164B1A681D4B1A60194B1A681C4BBD
:103780001B68D21A1B4B1A60154B1A68184B1B6822
:103790001A44194B1A60174B1B681846FEF77CF841
:1037A000154B1B681846FEF7A3F80837BD4680BDC9
:1037B000DC090020D8090020100A0020140A00208B
:1037C0001C0A0020200A0020000A0020240A0020F1
:1037D000080A0020C4000020C5000020300A002094
:1037E000280A0020C6000020C7000020340A00205C
:1037F0002C0A0020380A00203C0A002080B500AFC7
:10380000394BD3ED007AFDEEE77A17EE903A002BB4
:10381000B8BF5B420A2B4FDD344B1B881A46344B32
:103820001B881344A12B47DD32484FF40051FFF7AA
:103830008BF931480421FFF787F9304B1B884F2B58
:1038400016D82F4B1B884F2B12D82C4B1B881A468F
:103850002B4B1B88D31A5A002A4B1A6025484FF469
:103860000051FFF763F924480421FFF75FF922E0D4
:10387000224B1B884F2B0AD8204B1B88A3F13C02FC
:10388000204B1A601C480421FFF750F913E01C4B31
:103890001B884F2B0BD81A4B1B88C3F14102194BC5
:1038A0001A6014484FF40051FFF740F903E0154B3C
:1038B00000221A6003E002E0124B00221A60124B51
:1038C0001B78002B0ED0094B1B881A46084B1B880F
:1038D0001344C72B06DC0D4B4FF4FF521A600A4B02
:1038E00000221A7080BD00BF000A0020AA09002033
:1038F000A80900200004024000000240AE09002098
:10390000AC0900201C0A0020480A0020F809002009
:1039100080B400AF064B43F290321A60054B01228F
:103920001A70054B00221A70BD465DF8047B704783
:10393000F8090020480A0020500A002080B400AF97
:10394000064B074A1A60074B00221A70064B0222E8
:103950001A70BD465DF8047B704700BFFC0900206B
:103960000CC7FFFF480A0020500A002080B400AFB7
:10397000064B43F6F4021A60054B00221A70054B01
:1039800003221A70BD465DF8047B7047FC090020D5
:10399000480A0020500A002080B400AF064B47F2CE
:1039A000E8121A60054B00221A70054B04221A70A7
:1039B000BD465DF8047B7047FC090020480A0020E2
:1039C000500A002080B400AF084B4AF6C0021A60CB
:1039D000074B00221A70074B00221A70064B002278
:1039E0001A60BD465DF8047B704700BFF8090020EF
:1039F000480A0020500A0020C009002080B485B089
:103A000000AF786039600023FB817B681B88FB81F5
:103A10007A68284B9A4213D07A68274B9A420FD083
:103A20007B68B3F1804F0BD07A68244B9A4207D061
:103A30007A68234B9A4203D07A68224B9A4208D183
:103A4000FB8923F07003FB813B685A88FB89134391
:103A5000FB817A681C4B9A420CD07A681B4B9A42C5
:103A600008D0FB8923F44073FB813B681A89FB89EA
:103A70001343FB817B68FA891A803B685A687B682C
:103A8000DA623B681A887B681A857A68094B9A4221
:103A900003D07A68084B9A4204D13B689B7A1A4655
:103AA0007B681A867B6801229A821437BD465DF8CE
:103AB000047B704700000140000401400004004006
:103AC00000080040000C00400010004000140040BE
:103AD00080B483B000AF786039607B683A68DA629E
:103AE0000C37BD465DF8047B704700BF80B483B0DF
:103AF00000AF78600B46FB70FB78002B08D07B682A
:103B00001B889BB243F080039AB27B681A8007E05F
:103B10007B681B889BB223F080039AB27B681A8073
:103B20000C37BD465DF8047B704700BF80B483B09E
:103B300000AF78600B46FB70FB78002B08D07B68E9
:103B40001B889BB243F001039AB27B681A8007E09E
:103B50007B681B889BB223F001039AB27B681A80B2
:103B60000C37BD465DF8047B704700BF80B485B05C
:103B700000AF7860396000237B810023FB81002344
:103B8000BB817B681B8C9BB223F001039AB27B68DC
:103B90001A847B681B8CFB817B689B88BB817B685C
:103BA0001B8B7B817B8923F070037B817B8923F0D6
:103BB00003037B813B681A887B8913437B81FB89E4
:103BC00023F00203FB813B689A89FB891343FB8145
:103BD0003B685A88FB891343FB817A681E4B9A42E3
:103BE00003D07A681D4B9A4223D1FB8923F0080346
:103BF000FB813B68DA89FB891343FB81FB8923F056
:103C00000403FB813B689A88FB891343FB81BB89D2
:103C100023F48073BB81BB8923F40073BB813B68B1
:103C20001A8ABB891343BB813B685A8ABB891343F9
:103C3000BB817B68BA899A807B687A891A833B68E2
:103C40009A687B685A637B68FA891A841437BD4680
:103C50005DF8047B704700BF000001400004014094
:103C600080B485B000AF7860396000237B81002389
:103C7000FB810023BB817B681B8C9BB223F010036C
:103C80009AB27B681A847B681B8CFB817B689B885B
:103C9000BB817B681B8B7B817B8923F4E0437B8129
:103CA0007B8923F440737B813B681B881B029AB29B
:103CB0007B8913437B81FB8923F02003FB813B68D5
:103CC0009B891B019AB2FB891343FB813B685B888C
:103CD0001B019AB2FB891343FB817A68224B9A42FB
:103CE00003D07A68214B9A422BD1FB8923F08003C1
:103CF000FB813B68DB891B019AB2FB891343FB8183
:103D0000FB8923F04003FB813B689B881B019AB22F
:103D1000FB891343FB81BB8923F48063BB81BB898F
:103D200023F40063BB813B681B8A9B009AB2BB896A
:103D30001343BB813B685B8A9B009AB2BB891343E8
:103D4000BB817B68BA899A807B687A891A833B68D1
:103D50009A687B689A637B68FA891A841437BD462F
:103D60005DF8047B704700BF000001400004014083
:103D700080B485B000AF7860396000237B81002378
:103D8000FB810023BB817B681B8C9BB223F4807377
:103D90009AB27B681A847B681B8CFB817B689B884A
:103DA000BB817B689B8B7B817B8923F070037B814C
:103DB0007B8923F003037B813B681A887B8913434B
:103DC0007B81FB8923F40073FB813B689B891B0289
:103DD0009AB2FB891343FB813B685B881B029AB252
:103DE000FB891343FB817A68224B9A4203D07A689D
:103DF000214B9A422BD1FB8923F40063FB813B6862
:103E0000DB891B029AB2FB891343FB81FB8923F4F4
:103E10008063FB813B689B881B029AB2FB8913433A
:103E2000FB81BB8923F48053BB81BB8923F40053FE
:103E3000BB813B681B8A1B019AB2BB891343BB81C0
:103E40003B685B8A1B019AB2BB891343BB817B68C9
:103E5000BA899A807B687A899A833B689A687B687A
:103E6000DA637B68FA891A841437BD465DF8047BEF
:103E7000704700BF000001400004014080B485B0DD
:103E800000AF786039600023BB8100237B81002371
:103E9000FB817B681B8C9BB223F480539AB27B68B6
:103EA0001A847B681B8C7B817B689B88FB817B6889
:103EB0009B8BBB81BB8923F4E043BB81BB8923F48B
:103EC0004073BB813B681B881B029AB2BB891343BA
:103ED000BB817B8923F400537B813B689B891B0357
:103EE0009AB27B8913437B813B685B881B039AB240
:103EF0007B8913437B817A68114B9A4203D07A689D
:103F0000104B9A420AD1FB8923F48043FB813B6822
:103F10001B8A9B019AB2FB891343FB817B68FA8958
:103F20009A807B68BA899A833B689A687B681A642E
:103F30007B687A891A841437BD465DF8047B704724
:103F4000000001400004014080B485B000AF7860FB
:103F50000B467B800023FB817B681B8BFB81FB89ED
:103F600023F00803FB81FA897B881343FB817B687C
:103F7000FA891A831437BD465DF8047B704700BF89
:103F800080B485B000AF78600B467B800023FB8156
:103F90007B681B8BFB81FB8923F40063FB817B889F
:103FA0001B029AB2FB891343FB817B68FA891A834F
:103FB0001437BD465DF8047B704700BF80B485B000
:103FC00000AF78600B467B800023FB817B689B8B76
:103FD000FB81FB8923F00803FB81FA897B8813436B
:103FE000FB817B68FA899A831437BD465DF8047BB0
:103FF000704700BF80B485B000AF78600B467B800F
:104000000023FB817B689B8BFB81FB8923F400638E
:10401000FB817B881B029AB2FB891343FB817B687F
:10402000FA899A831437BD465DF8047B704700BF58
:1040300080B487B000AFF86079813A81FB800023BB
:10404000FB820023BB8200237B82FB681B89FB82EF
:10405000FB681B8BBB82FB681B8C7B82FB8A23F07B
:104060000703FB82FA8A7B891343FB82BB8A23F412
:10407000407323F00303BB82BB8A43F4807343F095
:104080000103BB827B8A23F022037B82FB881B0116
:104090009AB23B8913439AB27B8A13437B82FB68B3
:1040A000FA8A1A81FB68BA8A1A83FB687A8A1A84A8
:1040B0001C37BD465DF8047B704700BF80B58AB0F1
:1040C00000AF786010200121FDF702FE4FF4C063BD
:1040D0003B62022387F82430032387F8253000232E
:1040E00087F82630012387F8273007F120031F487F
:1040F0001946FEF78DFC1D4809210722FEF732FD07
:104100001A480A210722FEF72DFD19480121FDF763
:10411000E1F97B683B610023BB820023FB82002323
:104120003B830023BB830C237B8307F110031048E0
:104130001946FDF7F5F80E4840F225510122FDF72A
:10414000FDF925233B730F237B730F23BB730123DF
:10415000FB7307F10C031846FEF7D6FF0448012154
:10416000FDF798F92837BD4680BD00BF000002402A
:104170000010014080B582B000AF786012E000BF4F
:104180000C488021FDF722FA0346002BF8D07B680B
:104190001B78DBB207481946FDF7BEF97B685A1C4D
:1041A0007A601B787B681B78DBB2002BE7D108377D
:1041B000BD4680BD0010014080B582B000AF2148EF
:1041C00040F22551FDF71EFA0346002B37D01D4B58
:1041D0009B889BB2FB71FB792E2B0FD01A4B1B785F
:1041E000132B0BD8184B1B78184AF979D154164B5E
:1041F0001B780133DAB2144B1A7020E0124B1B7893
:10420000124A0021D154104B1B780133DAB20E4B05
:104210001A700AE00C4B1B780C4A0021D1540A4B4F
:104220001B780133DAB2084B1A70074B1B78132B3B
:10423000F0D9074B01221A70034B00221A7008377D
:10424000BD4680BD00100140690A0020540A0020CC
:10425000680A002070B52DED048BA84E8AB0B0EE30
:10426000409AB0EE608A00F099F996F90030013377
:10427000F0EE408A04D0B0EE480A00F069FD28B99B
:10428000B0EE680A0AB0BDEC048B70BDB0EE490A0E
:1042900000F05EFD002835D1B5EE408AF1EE10FA4F
:1042A000EED1974B0890012219EE100A8DE80C0010
:1042B00000F04CFFCDE9020118EE100A00F046FFB5
:1042C000904B96F900400022CDE90623631CCDE90E
:1042D00004010DD0022C0BD0684600F095FC00289C
:1042E00000F0A480089B1BB101F0B6FA089B0360A4
:1042F000DDE9060101F060FA00EE100A0AB0BDEC3B
:10430000048B70BDB5EE409AF1EE10FA23D1B5EEF4
:10431000408AF1EE10FA5CD10123794A009319EE3C
:10432000100A00230192089300F010FFCDE902016A
:1043300018EE100A00F00AFF96F900400022002350
:10434000CDE90401CDE90623002CC5D06D4B002238
:10435000CDE90623CCE7B0EE680A00F0EFFC044696
:10436000002868D0F5EE408AF1EE10FA88D1B0EE60
:10437000490A00F0E3FC002882D0B0EE480A00F0C1
:10438000DDFC00283FF47CAF04235D4A009319EE66
:10439000100A00230192089300F0D8FECDE9020133
:1043A00018EE100A00F0D2FE96F900400022002319
:1043B000022CCDE90401CDE9062300F08E80684689
:1043C00000F022FC002800F08880089B002B8FD092
:1043D0008AE7B0EE480A00F0B1FC00283FF450AF85
:1043E000B5EEC08AF1EE10FA7FF54AAF0123444AD8
:1043F000009319EE100A00230192089300F0A6FE24
:10440000CDE9020118EE100A00F0A0FE3478CDE9E3
:1044100004010022002C34D03B4B022CCDE90623B2
:1044200032D101F019FA21230360CEE701F014FA2A
:104430002123036056E7B0EE490A00F07FFC002814
:1044400090D0B0EE480A00F079FC00288AD0B0EE97
:10445000680A00F07DFCE8B9294B0890012219EEAA
:10446000100A8DE80C0000F071FECDE9020118EE93
:10447000100A00F06BFE3478CDE90401002C31D134
:1044800000220023CDE90623684600F0BDFB00288A
:104490009BD1C6E71A4B0894032219EE100A8DE847
:1044A0000C0000F053FECDE9020118EE100A00F0F6
:1044B0004DFE96F90030CDE904014BBB134BB5EE30
:1044C000C09A4FF06042F1EE10FACDE9062343D4D2
:1044D00096F90030022B7FF472AF01F0BDF9222370
:1044E000036072E70020002102460B4600F0ACFF9B
:1044F000022CCDE9060194D0C6E700BFC800002019
:10450000EC9900080000F03F0000F0FFFFFFEF47CC
:104510001F4BB5EEC09A0022F1EE10FACDE906234A
:10452000D6D5F6EE007A68EE277A17EE900A00F0FC
:104530000DFE04460D4645EC104B00F067FB20468F
:10454000294653EC102B01F0BDF80028C0D1114BC7
:104550000022CDE90623BBE7F6EE007A68EE277A63
:1045600017EE900A00F0F2FD04460D4645EC104BA4
:1045700000F04CFB2046294653EC102B01F0A2F82A
:104580000028A5D1044B4FF06042CDE906239FE7F8
:104590000000F07F0000F0FFFFFFEFC72DE9F047BC
:1045A00010EE905A35F000472DED028B10EE904A38
:1045B00010EE106A13D026F00048B8F1FF4F10EE4D
:1045C000109A06DDBDEC028B5048BDE8F04700F0C4
:1045D000DBBBB7F1FF4F08DDB8F17E5FF2D1B7EE7C
:1045E000000ABDEC028BBDE8F087002E51DB4FF0D6
:1045F000000AB7F1FF4F43D0B7F17E5F5CD0B4F152
:10460000804F68D0B4F17C5F00EE106A1CD000F0DF
:104610008DFBB8F1000F20D029F04043B3F17E5F4D
:104620001BD04FEAD973013B5AEA030066D0B7F1B9
:104630009A4F73DD364A904500F3CC81002CC0F2CE
:10464000CF819FED340ACCE7B9F1000FDFDBBDEC81
:10465000028BBDE8F04700F085BA002CBCBFF7EE36
:10466000007A87EE800AB9F1000FBADAA8F17E5815
:104670005AEA08083BD130EE400A80EE000AB0E763
:10468000B8F17E5FABD01FDD002CDADB00EE105AF4
:10469000A7E7B7F1974F14DAB7F17E5F09DBFB1597
:1046A000C3F1960347FA03F202FA03F3BB4200F0A8
:1046B00087814FF0000A9FE7002C11DB00EE106AA3
:1046C0008FE74FF0020A94E7002CBADA02EE105A94
:1046D000B1EE420A85E706EE106A26EE060A80E78A
:1046E00005EE906AB7EE000A80EE250A79E7BAF186
:1046F000010F7FF476AFB1EE400A72E702EE106A66
:1047000032EE420A80EE000A6BE700BF549A0008BE
:10471000F7FF7F3F000000000000804BB8F5000F5E
:1047200080F256815FED047A60EE277A6FF0170110
:1047300017EE908AEC4A4FEAE856C8F316087F3E17
:1047400090450E4448F07E5140F33F81E74A904542
:1047500040F3948100200136A1F500010246DFF804
:10476000FC839FEDE36A9FEDE33ADFEDE33A9FEDD3
:10477000E34A9FEDE35ADFEDE34ADFF8E4C3E24F9B
:10478000DFEDE20A9FEDE21ADFEDE22A92009044AB
:1047900007EE901A98ED007A77EE876AB7EE002A56
:1047A00082EE262A491041F0005101F58021014492
:1047B00077EEC75A01EE901A65EE826A31EEC77A3B
:1047C00016EE900A37EEC70A26EEA67A20F47F602E
:1047D000A7EE063A20F00F000CEB020107EE900A5C
:1047E000E3EE073A3A44B1EE676AA3EE874AE6EE93
:1047F000215AA4EE075AE6EE005AE5EE074A65EEA6
:10480000823A76EEA75A27EE077A65EEA35AB0EE03
:10481000085AE7EE245AB0EE457AA7EEA77AD2ED11
:10482000004A91ED003A37EE257A02EE106A17EE53
:10483000100A20F47F6020F00F0207EE102A37EEF6
:10484000455AB8EEC24AA6EE275A75EEC55A65EE2D
:10485000A66AE3EE876AB0EE662AA7EE872A12EE12
:10486000100A20F47F6020F00F0202EE102AA6EE5C
:10487000072A07EE902A76EEC26A66EEA06AE7EE95
:10488000816A76EE836AB0EE667AA7EEA27A37EE98
:10489000247A37EE047A17EE102A22F47F6222F08F
:1048A0000F0205EE902A35EEC47A37EE647AA7EE51
:1048B000E27A76EEC77A24F47F6424F00F0406EEE1
:1048C000105A07EE104A02EE102A76EE476A66EE9C
:1048D000277A22EE077AE6EE827A0AF1FF3A5AEA5E
:1048E000030AB7EE008A77EE876ABFEE006A16EE1B
:1048F000903A08BFB0EE468A002B23F0004240F306
:10490000AA80B2F1864F7BDC6FD0B2F17C5F7EDC97
:104910000022104623F47F6323F00F0306EE903A43
:104920009FED7D6A9FED7D2ADFED7D3ADFED7D2AEB
:104930009FED7D4ADFED7D4A9FED7D5ADFED7D5A8B
:1049400036EEC77A26EE866A77EEC77AB0EE003A80
:10495000A7EE826AB7EE000AF0EE467AE6EEA37A98
:1049600027EEA77AB0EE672AA7EE224AA6EEE32A40
:10497000E4EE074A76EE426AA4EE875AB0EE676A22
:10498000E5EE075AE7EEA66AA5EEC76AB0EE467AEC
:1049900037EE437A27EE866A86EE077A77EE666A06
:1049A00076EEE77A30EE670A10EE103A1344B3F56C
:1049B000000FC0F2968000EE103A28EE000A10E6D2
:1049C00002F00102C2F1020A16E600200246C6E623
:1049D0000021AFE6584A904554DD002C7FF731AEF8
:1049E0009FED560A20EE000AFBE59FED556A76EE34
:1049F000C76A37EE866AB4EEE66AF1EE10FA06DDB3
:104A0000DFED4E7A28EE270A20EE270AE9E5D215D7
:104A10004FF400017E3A41FA02F21A44C2F3C75140
:104A2000484DA1F17F0445FA04F4C2F3160022EACE
:104A3000040205EE902A37EE657AC1F1960140F442
:104A400000000841002B37EE876AB8BF4042C2051C
:104A500016EE103A5EE73C498A4208DC7FF455AF17
:104A600076EEC76AF4EEE67AF1EE10FACFD8DFED13
:104A7000377A28EE270A20EE270AB2E54FF4001015
:104A800001226CE6F7EE007A30EE670ADFED1B6A72
:104A9000DFED2F7A9FED2F5A9FED2F6AF1EE405AEE
:104AA000B5EE007AE5EE876AB6EE007AA6EEC07A39
:104AB00060EE006A26EE877A67EEC77AE0EE057A46
:104AC000F0EE676AE0EE066A16EE902A22F47F6244
:104AD00022F00F0207EE102AA5EE867A77EEC77A4B
:104AE000E9E600F057F968E771C41C00D6B35D0031
:104AF00042F1533E55326C3E05A38B3EABAAAA3E13
:104B0000B76DDB3E9A99193FF49900084F38763F0C
:104B1000A0C39D360038763F8CBEBF351872313F3A
:104B20000072313F4CBB31330EEADDB555B38A38E4
:104B3000610B36BBABAA2A3E0700803FCAF249711F
:104B40003CAA3833FFFF7F00000016436042A20DED
:104B50003BAAB83F70A5EC3600AAB83F049A0008FB
:104B6000FC99000810EE103A23F00042B2F1FF4F1A
:104B700070B430D26AB3002B3DDBB2F5000F4FEAC0
:104B8000E3512CD3A1F17F02C3F31603D10743F401
:104B9000000348BF5B00002556105B002C4619211E
:104BA0004FF08072A018984202DC1B1A841815443A
:104BB00001394FEA43034FEA5202F3D113B105F032
:104BC00001031D446D1005F17C5505EBC65500EE43
:104BD000105A70BC7047A0EE000A70BC704713F406
:104BE00000020DD15B00180202F10102FAD5C2F1F8
:104BF00001021144C6E730EE400A80EE000AE8E701
:104C000001221144BEE700BF00207047F0B553EC0D
:104C1000102BC3F30A50A0F2FF31132983B09C4636
:104C200010EE107A4FEAD37631DC00294FDB3D4895
:104C3000084100EA0304144327D0400800EA0307B0
:104C400017430CD04FF4802C132923EA00004CFAB0
:104C500001F140EA010C14BF00274FF00047324B2E
:104C600003EBC6063C46D6E900676346224630465B
:104C7000394600F00DF9CDE9000132463B46DDE949
:104C8000000100F003F941EC100B03B0F0BD332933
:104C90000ADDB1F5806FF8D151EC100B0B4600F036
:104CA000F7F841EC100BF0E7A0F213404FF0FF31A2
:104CB000C1401142E9D049081142D0D04FF080479D
:104CC00022EA010147FA00F041EA0007C7E723F0B2
:104CD00000411143D9D0C3F313010A435442144392
:104CE0001148590C240B490404F4002400EBC600BD
:104CF00053EC102B44EA0103D0E900452046294635
:104D000000F0C6F8CDE900012B462246DDE900019E
:104D100000F0BCF821F0004343EAC67141EC100BEF
:104D2000B3E700BFFFFF0F00109A000810EE102A33
:104D300022F0004300EE103A704700BF10EE103A28
:104D400023F00040B0F1FF4FACBF002001207047BE
:104D500010EE103A33F0004001D102207047A0F568
:104D60000003B3F1FE4F01D204207047054B421EF1
:104D70009A4201D803207047B0F1FF43584258418E
:104D8000704700BFFEFF7F009FED010A704700BF24
:104D90000000C07F08B510EE103A33F000412DED51
:104DA000028B10EE102A11D0B1F1FF4F11D2B1F5E4
:104DB000000F13D3C90D0144FE2930DC00291CDD8E
:104DC00022F0FF4242EAC15200EE102ABDEC028BF3
:104DD00008BDBDEC028B30EE000A08BDDFED1E7A87
:104DE0001E4A20EE277A904217EE103A22DBC3F3D8
:104DF000C75117EE102A1939DDE711F1160F1EDA27
:104E00004CF2503290420ADC9FED158A00EE903A47
:104E1000B0EE480A00F02AF820EE080AD6E79FED27
:104E2000118A00EE903AB0EE480A00F01FF820EE2A
:104E3000080ACBE79FED0A0A27EE000AC6E71931F8
:104E400022F0FF4242EAC152DFED077A07EE102A54
:104E500027EE270ABAE700BF0000004CB03CFFFF76
:104E60006042A20DCAF249710000003310EE101A20
:104E700021F0004210EE901A01F00043134300EEBF
:104E8000103A704781F0004102E000BF83F0004318
:104E900030B54FEA41044FEA430594EA050F08BFD5
:104EA00090EA020F1FBF54EA000C55EA020C7FEA99
:104EB000645C7FEA655C00F0E2804FEA5454D4EB16
:104EC0005555B8BF6D420CDD2C4480EA020281EAE0
:104ED000030382EA000083EA010180EA020281EA18
:104EE0000303362D88BF30BD11F0004F4FEA01316A
:104EF0004FF4801C4CEA113102D0404261EB410179
:104F000013F0004F4FEA03334CEA133302D05242FE
:104F100063EB430394EA050F00F0A780A4F10104BA
:104F2000D5F1200E0DDB02FA0EFC22FA05F28018F4
:104F300041F1000103FA0EF2801843FA05F35941DA
:104F40000EE0A5F120050EF1200E012A03FA0EFC59
:104F500028BF4CF0020C43FA05F3C01851EBE37183
:104F600001F0004507D54FF0000EDCF1000C7EEBA0
:104F700000006EEB0101B1F5801F1BD3B1F5001FDE
:104F80000CD349085FEA30004FEA3C0C04F10104FD
:104F90004FEA445212F5800F80F09A80BCF1004F26
:104FA00008BF5FEA500C50F1000041EB045141EAA8
:104FB000050130BD5FEA4C0C404141EB010111F4A9
:104FC000801FA4F10104E9D191F0000F04BF014654
:104FD0000020B1FA81F308BF2033A3F10B03B3F132
:104FE00020020CDA0C3208DD02F1140CC2F10C02C2
:104FF00001FA0CF021FA02F10CE002F11402D8BF20
:10500000C2F1200C01FA02F120FA0CFCDCBF41EAEB
:105010000C019040E41AA2BF01EB0451294330BDBA
:105020006FEA04041F3C1CDA0C340EDC04F1140497
:10503000C4F1200220FA04F001FA02F340EA03006E
:1050400021FA04F345EA030130BDC4F10C04C4F1B4
:10505000200220FA02F001FA04F340EA0300294694
:1050600030BD21FA04F0294630BD94F0000F83F4DE
:10507000801306BF81F480110134013D4EE77FEAC1
:10508000645C18BF7FEA655C29D094EA050F08BF0D
:1050900090EA020F05D054EA000C04BF19461046EE
:1050A00030BD91EA030F1EBF0021002030BD5FEA32
:1050B000545C05D14000494128BF41F0004130BD5A
:1050C00014F580043CBF01F5801130BD01F00045AE
:1050D00045F0FE4141F470014FF0000030BD7FEA21
:1050E000645C1ABF194610467FEA655C1CBF0B461C
:1050F000024650EA013406BF52EA033591EA030F33
:1051000041F4002130BD00BF90F0000F04BF00212A
:10511000704730B54FF4806404F132044FF000055D
:105120004FF0000150E700BF90F0000F04BF0021D6
:10513000704730B54FF4806404F1320410F000453C
:1051400048BF40424FF000013EE700BF42004FEA37
:10515000E2014FEA31014FEA02701FBF12F07F43B4
:1051600093F07F4F81F06051704792F0000F14BFB1
:1051700093F07F4F704730B54FF4607401F00045F5
:1051800021F0004120E700BF50EA010208BF70474C
:1051900030B54FF000050AE050EA010208BF704741
:1051A00030B511F0004502D5404261EB41014FF4AA
:1051B000806404F132045FEA915C3FF4DCAE4FF0AE
:1051C00003025FEADC0C18BF03325FEADC0C18BF95
:1051D000033202EBDC02C2F1200300FA03FC20FAE6
:1051E00002F001FA03FE40EA0E0021FA02F1144433
:1051F000C1E600BF70B54FF0FF0C4CF4E06C1CEA48
:1052000011541DBF1CEA135594EA0C0F95EA0C0FBC
:1052100000F0DEF82C4481EA030621EA4C5123EA2F
:105220004C5350EA013518BF52EA033541F480115E
:1052300043F4801338D0A0FB02CE4FF00005E1FB11
:1052400002E506F00042E0FB03E54FF00006E1FB5B
:1052500003569CF0000F18BF4EF0010EA4F1FF049E
:10526000B6F5007F64F5407404D25FEA4E0E6D41DE
:1052700046EB060642EAC62141EA55514FEAC520EF
:1052800040EA5E504FEACE2EB4F1FD0C88BFBCF56B
:10529000E06F1ED8BEF1004F08BF5FEA500E50F11C
:1052A000000041EB045170BD06F0004646EA0101E2
:1052B00040EA020081EA0301B4EB5C04C2BFD4EB14
:1052C0000C0541EA045170BD41F480114FF0000E0D
:1052D000013C00F3AB8014F1360FDEBF002001F07B
:1052E000004170BDC4F10004203C35DA0C341BDCF5
:1052F00004F11404C4F1200500FA05F320FA04F0C7
:1053000001FA05F240EA020001F0004221F00041FA
:1053100010EBD37021FA04F642EB06015EEA430E6D
:1053200008BF20EAD37070BDC4F10C04C4F120059D
:1053300000FA04F320FA05F001FA04F240EA020050
:1053400001F0004110EBD37041F100015EEA430E21
:1053500008BF20EAD37070BDC4F1200500FA05F241
:105360004EEA020E20FA04F301FA05F243EA0203C0
:1053700021FA04F001F0004121FA04F220EA0200CF
:1053800000EBD3705EEA430E08BF20EAD37070BD15
:1053900094F0000F0FD101F00046400041EB0101F5
:1053A00011F4801F08BF013CF7D041EA060195F0D7
:1053B000000F18BF704703F00046520043EB030391
:1053C00013F4801F08BF013DF7D043EA060370477E
:1053D00094EA0C0F0CEA135518BF95EA0C0F0CD089
:1053E00050EA410618BF52EA4306D1D181EA0301CF
:1053F00001F000414FF0000070BD50EA410606BFC9
:105400001046194652EA430619D094EA0C0F02D10D
:1054100050EA013613D195EA0C0F05D152EA033652
:105420001CBF104619460AD181EA030101F0004170
:1054300041F0FE4141F470014FF0000070BD41F0B9
:10544000FE4141F4780170BD70B54FF0FF0C4CF493
:10545000E06C1CEA11541DBF1CEA135594EA0C0FB2
:1054600095EA0C0F00F0A7F8A4EB050481EA030EFF
:1054700052EA03354FEA013100F088804FEA0333E6
:105480004FF0805545EA131343EA12634FEA0222B4
:1054900045EA111545EA10654FEA00260EF0004175
:1054A0009D4208BF964244F1FD0404F5407402D2C7
:1054B0005B084FEA3202B61A65EB03055B084FEA58
:1054C00032024FF480104FF4002CB6EB020E75EB55
:1054D000030E22BFB61A754640EA0C005B084FEA7D
:1054E0003202B6EB020E75EB030E22BFB61A7546FA
:1054F00040EA5C005B084FEA3202B6EB020E75EB45
:10550000030E22BFB61A754640EA9C005B084FEABC
:105510003202B6EB020E75EB030E22BFB61A7546C9
:1055200040EADC0055EA060E18D04FEA051545EAB8
:1055300016754FEA06164FEAC30343EA52734FEA61
:10554000C2025FEA1C1CC0D111F4801F0BD141EADA
:1055500000014FF000004FF0004CB6E711F4801F3F
:1055600004BF01430020B4F1FD0C88BFBCF5E06F1F
:105570003FF6AFAEB5EB030C04BFB6EB020C5FEA2F
:10558000500C50F1000041EB045170BD0EF0004E84
:105590004EEA113114EB5C04C2BFD4EB0C0541EAB6
:1055A000045170BD41F480114FF0000E013C90E6B3
:1055B00045EA060E8DE60CEA135594EA0C0F08BF77
:1055C00095EA0C0F3FF43BAF94EA0C0F0AD150EA76
:1055D00001347FF434AF95EA0C0F7FF425AF104609
:1055E00019462CE795EA0C0F06D152EA03353FF431
:1055F000FDAE1046194622E750EA410618BF52EAAE
:1056000043067FF4C5AE50EA41047FF40DAF52EA81
:1056100043057FF4EBAE12E74FF0FF3C06E000BF1E
:105620004FF0010C02E000BF4FF0010C4DF804CD2B
:105630004FEA410C7FEA6C5C4FEA430C18BF7FEAEB
:105640006C5C1BD001B050EA410C0CBF52EA430C19
:1056500091EA030F02BF90EA020F0020704710F199
:10566000000F91EA030F58BF994208BF90422CBF28
:10567000D8176FEAE37040F0010070474FEA410C21
:105680007FEA6C5C02D150EA013C07D14FEA430C3F
:105690007FEA6C5CD6D152EA033CD3D05DF8040BB0
:1056A000704700BF8446104662468C4619466346E2
:1056B00000E000BF01B5FFF7B7FF002848BF10F1B9
:1056C000000F01BD4DF808EDFFF7F4FF0CBF0120FE
:1056D00000205DF808FB00BF4DF808EDFFF7EAFF7A
:1056E00034BF012000205DF808FB00BF4DF808ED35
:1056F000FFF7E0FF94BF012000205DF808FB00BF2A
:105700004DF808EDFFF7CEFF94BF012000205DF8B3
:1057100008FB00BF4DF808EDFFF7C4FF34BF0120C0
:1057200000205DF808FB00BF4FEA410212F50012AD
:1057300015D211D56FF47873B3EB625212D94FEAD8
:10574000C12343F0004343EA505311F0004F23FAC2
:1057500002F018BF404270474FF00000704750EA17
:10576000013005D111F0004008BF6FF000407047D4
:105770004FF00000704700BF4A0011D212F500122E
:1057800011D20DD56FF47873B3EB62520ED44FEA99
:10579000C12343F0004343EA505323FA02F0704719
:1057A0004FF00000704750EA013002D14FF0FF3057
:1057B00070474FF0000070474FEA4102B2F1E043FA
:1057C00024BFB3F5001CDCF1FE5C0DD901F0004CE8
:1057D0004FEAC0024CEA5070B2F1004F40EB830038
:1057E00008BF20F00100704711F0804F21D113F164
:1057F0003872BCBF01F00040704741F480114FEA9D
:105800005252C2F11802C2F1200C10FA0CF320FA25
:1058100002F018BF40F001004FEAC1234FEAD32342
:1058200003FA0CFC40EA0C0023FA02F34FEA4303AC
:10583000CCE77FEA625307D150EA01331EBF4FF035
:10584000FE4040F44000704701F0004040F0FE4050
:1058500040F40000704700BF014B1868704700BF5C
:10586000F8040020024B0146186800F00BB800BF96
:10587000F8040020024B0146186802F067BD00BF23
:10588000F80400202DE9F04F01F10B05162D83B02F
:10589000064627D935F0070527D4A94225D8304632
:1058A00000F08CFAB5F5FC7F26D2C14F4FEAD50C3B
:1058B00007EBCC03DC689C4200F0D2816368E268AD
:1058C000A16823F00303234430465D68CA6045F0B5
:1058D000010591605D6000F073FA0834204603B062
:1058E000BDE8F08F1025A942D9D900240C23204609
:1058F000336003B0BDE8F08F5FEA552C00F08A807A
:10590000BCF1040F00F260814FEA951C0CF1380CD9
:105910004FEA4C01A64F07EB8101CC68A14205D1AB
:105920000CE0002B7ADAE468A14207D0626822F02A
:105930000302531B0F2BF4DD0CF1FF3C0CF1010CA7
:105940009B4B3C6903F1080E744500F07E81616851
:1059500021F003014A1B0F2A00F36481002AC3F8D7
:1059600014E0C3F810E06ADAB1F5007F80F03A8104
:10597000C90803EBC1004FEAA1085A688168A16019
:105980004FF0010909FA08F848EA0202E0605A609B
:105990008460CC604FEAAC030120984090425BD811
:1059A000024206D12CF0030C400002420CF1040C20
:1059B000FAD007EBCC084446E146E3689C4207D1A5
:1059C00045E1002A80F25681DB689C4200F03F816D
:1059D000596821F003014A1B0F2AF2DD1C46D3F857
:1059E0000CC054F8088F591945F0010942F001051F
:1059F000C3F804903046C8F80CC0CCF80880796130
:105A00003961C1F80CE0C1F808E04D608A5000F03F
:105A1000D7F963E77E214FF03F0C7BE72244E36830
:105A20005068A16840F00105CB6030469960556030
:105A300000F0C6F90834204603B0BDE8F08F2144D9
:105A400030464B6843F001034B6000F0B9F908346D
:105A5000204603B0BDE8F08FBC68636823F00309FB
:105A6000A94504D3C5EB09030F2B00F39180514BDB
:105A7000514A19681368013305EB010A04EB090B5D
:105A800000F061810AF5805A0AF10F0A2AF47F6A50
:105A90002AF00F0A30465146019200F093F9B0F116
:105AA000FF3F8046019A00F00081834500F2FA80B2
:105AB000DFF810C1DCF80030C3455344CCF80030A7
:105AC00000F04A8112683C4901321BBFCBEB080B46
:105AD0005B44C1F80080CCF8003018F0070300F0F8
